{
  "contractName": "Contract",
  "abi": [
    {
      "constant": true,
      "inputs": [],
      "name": "value",
      "outputs": [
        {
          "internalType": "int256",
          "name": "",
          "type": "int256"
        }
      ],
      "payable": false,
      "stateMutability": "view",
      "type": "function"
    },
    {
      "constant": false,
      "inputs": [
        {
          "internalType": "int256",
          "name": "_value",
          "type": "int256"
        }
      ],
      "name": "getDouble",
      "outputs": [
        {
          "internalType": "int256",
          "name": "_output",
          "type": "int256"
        }
      ],
      "payable": false,
      "stateMutability": "nonpayable",
      "type": "function"
    }
  ],
  "bytecode": "0x608060405234801561001057600080fd5b5060e68061001f6000396000f3fe6080604052348015600f57600080fd5b506004361060325760003560e01c8063153e47b11460375780633fa4f245146076575b600080fd5b606060048036036020811015604b57600080fd5b81019080803590602001909291905050506092565b6040518082815260200191505060405180910390f35b607c60ab565b6040518082815260200191505060405180910390f35b6000600260005402600081905550600282029050919050565b6000548156fea265627a7a72315820e7434be818ec8656ed5da3a7b0449db0f54e22e0aa2ec714f107265f25ba4b8f64736f6c634300050c0032",
  "source": "pragma solidity >=0.4.21 <0.6.0;\n\ncontract Contract {\n\nint public value;\n\nfunction getDouble(int _value) public returns (int _output){\n\nvalue = value*2;\nreturn _value*2;\n\n}\n\n}",
  "sourcePath": "D:/Solidity Work/Work at Home/1st Smart Contract/contracts/Contract.sol",
  "compiler": {
    "name": "solc",
    "version": "0.5.12+commit.7709ece9.Emscripten.clang"
  },
  "schemaVersion": "3.0.19",
  "updatedAt": "2019-11-19T15:43:01.829Z",
  "networkType": "ethereum",
  "devdoc": {
    "methods": {}
  },
  "userdoc": {
    "methods": {}
  }
}